:02000000002AD4
:10000800F000030EF100031383120B1917230C18C9
:100018001A238C181E230B182023710E8300F00E50
:04002800700E09004D
:100200008A010A140F398207DD345034CE34DA34CF
:1002100053349B349F34D034DF34D334D7341F3439
:080220008D345E348F34873405
:100400008322C822CF22DC22E622F422C118C02394
:1004100020083C3C0319C32321083C3C0319C62394
:100420002208183C0319C923440889004518532A97
:10043000C518792A45197E2A1D2A0514851005112B
:1004400085112008B0002108B1002208B200B501D2
:10045000B601B701B801B901BA013F08B002B60A46
:1004600003182E2A84234008B002B50A0318342A40
:100470008A233F08B102B80A03183A2A9023400899
:10048000B102B70A0318402A96233F08B202BA0AFB
:100490000318462A9C234008B202B90A03184C2AC2
:1004A000A2234623062A0510851405118511230869
:1004B000B3002408B400BB01BC01BD01BE013F086C
:1004C000B302BC0A0318602AA8234008B302BB0A7F
:1004D0000318662AAE233F08B402BE0A03186C2A2A
:1004E000B4234008B402BD0A0318722ABA23532366
:1004F000062A0510851005158511062A0510851098
:1005000005118515062A031783168801890103132F
:100510008316FF3086008501870188018901031356
:100520008312850187018801860189010030A000BE
:100530003B30A1001730A2000030A5000030A6001B
:100540000030A7000030A8000030A9000030AA0049
:100550000030B5000030B6000030B7000030B80001
:100560000030B9000030BA000A30BF000130C000CE
:100570000030AF000030C1000030C2000030C300C6
:10058000FF30C4000130C5000F30A3000B30A400C1
:10059000031383160F140F178F160F12080003137F
:1005A000831681128111011181100110031383122E
:1005B000063081000B110800031383129010901174
:1005C000901610161013101410230800031383162E
:1005D000F33092000313831292141214121792161E
:1005E000121692151215080003138316161496148A
:1005F000161596151616031383160C148C14031374
:1006000083120B178B178B160B110C108C108B157C
:100610000B10080003138312063081000B11080031
:10062000031383120B308F00DC308E000C100A2372
:10063000602308001023C10AC40908008C100800B8
:100640000B10061C2623861C4623080045183A2B4F
:10065000C518402B45192E2B342B08004510C5100A
:100660004511061C2E2B08004514C5104511061C0B
:10067000342B08004510C5144511061C3A2B080000
:100680004510C5104515061C402B08002708002101
:10069000C70028080021C80029080021C9002A082D
:1006A0000021C60008002B080021C7002C080021EB
:1006B000C8002D080021C9002E080021C60008002E
:1006C00088012F186F2BAF18762B2F197D2B682BD5
:1006D0004908870008142F14AF102F11080048088C
:1006E000870088142F10AF142F11080047088700C7
:1006F00008152F10AF102F15080046088700881521
:100700002F10AF102F110800B6033F08B0073608AE
:10071000A6000800B5034008B0073508A50008008A
:10072000B8033F08B1073808A8000800B70340081D
:10073000B1073708A7000800BA033F08B2073A0814
:10074000AA000800B9034008B2073908A900080048
:10075000BC033F08B3073C08AC000800BB034008DB
:10076000B3073B08AB000800BE033F08B4073E08D0
:10077000AE000800BD034008B4073D08AD00080006
:10078000C101A00A0800A001A10A0800A101A20A53
:080790000800A201A30A080001
:04400E00D420FF3F7C
:00000001FF
