:02000000002AD4
:10000800F000030EF100031383120B1981230C185F
:1000180084238C1888230B188A23710E8300F00E12
:04002800700E09004D
:100200008A010A140F398207DD345034CE34DA34CF
:1002100053349B349F34D034DF34D334D7341F3439
:080220008D345E348F34873405
:10040000DC2232233923462350235E23D9187D244E
:1004100020083C3C03198524A11BA3033B30A11BEE
:10042000A100A108031D172AA30803199124051E82
:100430001B2A6118982422083C3C031988242508AB
:10044000183C03198B243B30A21BA2003B30A51B98
:10045000A5002708203C0319A70128080D3C031913
:100460008E241F30A71BA7000C30A81BA8005C0817
:1004700089005D186A2ADD18902A5D19B62A402A7B
:1004800005148510051185112008BC002208BE0046
:100490002508C000C501C601C701C801C901CA01BC
:1004A0005708BE02C80A0318512A1D245808BE0264
:1004B000C70A0318572A23245708C002CA0A031878
:1004C0005D2A29245808C002C90A0318632A2F2468
:1004D000B923062A05108514051185112708C100C6
:1004E0002808C200CB01CC01CD01CE015708C102C2
:1004F000CC0A0318772A35245808C102CB0A0318FE
:100500007D2A3B245708C202CE0A0318832A4124BD
:100510005808C202CD0A0318892A4724C623062A8E
:100520000510851005158511D301D401D501D6011B
:100530002408C4002608C3005708C402D40A0318BC
:100540009D2A65245808C402D30A0318A32A6B24E1
:100550005708C302D60A0318A92A71245808C302EF
:10056000D50A0318AF2A7724D323062A051085104D
:1005700005118515CF01D001D101D2012108BD009F
:100580002308BF005708BD02D00A0318C32A4D2410
:100590005808BD02CF0A0318C92A53245708BF02BE
:1005A000D20A0318CF2A59245808BF02D10A0318C7
:1005B000D52A5F24E023062A0317831688018901C0
:1005C00003138316FF3086008501870188018901A6
:1005D0000313831285018701880186018901003098
:1005E000A0003C30A2000530A5000030A90000307A
:1005F000AA000030AB000030AC000030AD0000308D
:10060000AE000030C5000030C6000030C70000302A
:10061000C8000030C9000030CA000A30D7000130DD
:10062000D8000030BB000030D9000030DA000030C4
:10063000DB00FF30DC000030DD000F30A7000B30A6
:10064000A800FE30DE000030DF000030E0000530A2
:10065000A1000030A3000530A4000A30A60000303D
:10066000E1000800031383160F140F178F160F12E3
:1006700008000313831681128111011181100110EA
:1006800003138312063081000B1108000313831239
:100690009010901190161016101310147A23080061
:1006A00003138316F330920003138312921412146F
:1006B00012179216121692151215080003138316BC
:1006C00016149614161596151616031383160C1485
:1006D0008C14031383120B178B178B160B110C1032
:1006E0008C108B150B100800031383120630810049
:1006F0000B110800031383120B308F00DC308E00C7
:100700000C107423ED2308007A23D90ADC090800B1
:100710008C100800061C9623861CB523061DA724F2
:10072000861DD224061E9C240B1008005D18A92BE0
:10073000DD18AF2B5D199D2BA32B5D10DD105D1116
:10074000061C9D2B08005D14DD105D11061CA32BFB
:1007500008005D10DD145D11061CA92B08005D105A
:10076000DD105D15061CAF2B0800DE09861CB62BBC
:1007700008002B080021E3002C080021E4002D08CC
:100780000021E5002E080021E200080031080021C8
:10079000E30032080021E4002F080021E5003008C2
:1007A0000021E200080037080021E300380800219A
:1007B000E40039080021E5003A080021E2000800C1
:1007C00033080021E30034080021E400350800214B
:1007D000E50036080021E200080088013B18FC2BE8
:1007E000BB18032C3B190A2CF52B6508870008144D
:1007F0003B14BB103B1108006408870088143B10B1
:10080000BB143B1108006308870008153B10BB10A0
:100810003B1508006208870088153B10BB103B1190
:100820000800C6035708BC074608AA000800C5030D
:100830005808BC074508A9000800C8035708BE07A8
:100840004808AC000800C7035808BE074708AB00BB
:100850000800CA035708C0074A08AE000800C903C9
:100860005808C0074908AD000800CC035708C10765
:100870004C08B0000800CB035808C1074B08AF0074
:100880000800CE035708C2074E08B2000800CD0387
:100890005808C2074D08B1000800D0035708BD072B
:1008A0005008B4000800CF035808BD074F08B30034
:1008B0000800D2035708BF075208B6000800D1034A
:1008C0005808BF075108B5000800D4035708C407EB
:1008D0005408B8000800D3035808C4075308B700E9
:1008E0000800D6035708C3075608BA000800D50306
:1008F0005808C3075508B9000800D901A00A5E18B6
:100900000800611C0800A1030800A001A20A080059
:10091000A201A50A0800A501A70A08000130A80045
:1009200008000030A3000030A10005166110080087
:1009300005120130A30008005E18A32C9F2CE109CA
:10094000061EA02C0800E009061EA42C08005E1C50
:1009500008006018BF2CAC2C5D18B72CDD18000007
:100960005D19BB2CB32CA20A061DB42C0800A70AE3
:10097000061DB82C0800A10A061DBC2C08005D1835
:10098000CA2CDD1800005D19CE2CC62CA50A061D48
:10099000C72C0800A80A061DCB2C0800A30A061DB8
:1009A000CF2C08005E1C08006018EA2CD72C5D18BC
:1009B000E22CDD1800005D19E62CDE2CA203861D5A
:1009C000DF2C0800A703861DE32C0800A103861D69
:1009D000E72C08005D18F52CDD1800005D19F92CD6
:1009E000F12CA503861DF22C0800A803861DF62C09
:0A09F0000800A303861DFA2C08007E
:04400E00D420FF3F7C
:00000001FF
