:02000000002AD4
:10000800F000030EF100031383120B1927230C18B9
:100018002A238C182E230B183023710E8300F00E20
:04002800700E09004D
:100200008A010A140F398207DD345034CE34DA34CF
:1002100053349B349F34D034DF34D334D7341F3439
:080220008D345E348F34873405
:100400008D22D822DF22EC22F6220423C118DD231C
:1004100020083C3C0319E02321083C3C0319E3235A
:100420002208183C0319E6233B30A11BA1003B30F6
:10043000A21BA2002308203C0319A30124080D3CA1
:100440000319E9231F30A31BA3000C30A41BA40035
:100450004408890045185B2AC518812A4519872A4E
:10046000312A05148510051185112008B0002108D6
:10047000B1002208B200B501B601B701B801B90157
:10048000BA013F08B102B80A0318422AAD23400856
:10049000B102B70A0318482AB3233F08B202BA0AC6
:1004A00003184E2AB9234008B202B90A0318542A85
:1004B000BF236323062A051085140511851123081F
:1004C000B3002408B400BB01BC01BD01BE013F085C
:1004D000B302BC0A0318682AC5234008B302BB0A4A
:1004E00003186E2ACB233F08B402BE0A0318742AED
:1004F000D1234008B402BD0A03187A2AD7237023F7
:10050000062A05108510051585117023062A051089
:100510008510051185156323062A031783168801A4
:10052000890103138316FF30860085018701880146
:1005300089010313831285018701880186018901DE
:100540000030A0003B30A1000530A2000030A50023
:100550000030A6000030A7000030A8000030A9003D
:100560000030AA000030B5000030B6000030B700FF
:100570000030B8000030B9000030BA000A30BF00C7
:100580000130C0000030AF000030C1000030C200B8
:100590000030C300FF30C4000030C5000F30A3009E
:1005A0000B30A400FE30C6000030C7000030C80089
:1005B000031383160F140F178F160F12080003135F
:1005C000831681128111011181100110031383120E
:1005D000063081000B110800031383129010901154
:1005E00090161016101310142023080003138316FE
:1005F000F3309200031383129214121412179216FE
:100600001216921512150800031383161614961469
:10061000161596151616031383160C148C14031353
:1006200083120B178B178B160B110C108C108B155C
:100630000B10080003138312063081000B11080011
:10064000031383120B308F00DC308E000C101A2342
:100650007D2308002023C10AC40908008C1008006B
:10066000061C3C23861C5B23061DEC23861D0F24E1
:10067000061E5F230B10080045184F2BC518552B7D
:100680004519432B492B4510C5104511061C432B1A
:1006900008004514C5104511061C492B08004510DB
:1006A000C5144511061C4F2B08004510C5104515F3
:1006B000061C552B0800C609861C5C2B0800C809BF
:1006C000061E602B080027080021CA002808002108
:1006D000CB0029080021CC002A080021C90008000D
:1006E0002B080021CA002C080021CB002D08002176
:1006F000CC002E080021C900080088012F188C2B7F
:10070000AF18932B2F199A2B852B4C0887000814B0
:100710002F14AF102F1108004B08870088142F10DA
:10072000AF142F1108004A08870008152F10AF10CA
:100730002F1508004908870088152F10AF102F11BA
:100740000800B6033F08B0073608A6000800B50346
:100750004008B0073508A5000800B8033F08B107F6
:100760003808A8000800B7034008B1073708A700F9
:100770000800BA033F08B2073A08AA000800B90304
:100780004008B2073908A9000800BC033F08B307B6
:100790003C08AC000800BB034008B3073B08AB00B3
:1007A0000800BE033F08B4073E08AE000800BD03C2
:1007B0004008B4073D08AD000800C101A00A0800C8
:1007C000A001A10A0800A101A20A0800A201A30A2F
:1007D00008000130A4000800461C08004818002C3E
:1007E000F12B4518FC2BC518000045190000F82B0B
:1007F000A10A061DF92B0800A30A061DFD2B0800FF
:1008000045180B2CC518000045190000072CA20A3A
:10081000061D082C0800A40A061D0C2C0800461C06
:1008200008004818232C142C45181F2CC51800004C
:10083000451900001B2CA103861D1C2C0800A303D6
:10084000861D202C080045182E2CC51800004519BF
:1008500000002A2CA203861D2B2C0800A403861D51
:040860002F2C080031
:04400E00D420FF3F7C
:00000001FF
