:02000000002AD4
:10000800F000030EF100031383120B199B230C1845
:100018009E238C18A2230B18A423710E8300F00EC4
:04002800700E09004D
:100200008A010A140F398207DD345034CE34DA34CF
:1002100053349B349F34D034DF34D334D7341F3439
:080220008D345E348F34873405
:10040000F6224C23532360236A237823D918972498
:1004100020083C3C03199F24A11BA3033B30A11BD4
:10042000A100A108031D172AA3080319B124051E62
:100430001B2A6118B82422083C3C0319A224240872
:100440003C3C0319A4012608183C0319A601250801
:10045000183C0319A5242308643C0319BC24A31BDE
:10046000A30121083C3C0319BF24A11BA1013B307F
:10047000A21BA2003B30A41BA4001730A51BA500A3
:100480001730A61BA6002708203C0319A70128083F
:100490000D3C0319A8241F30A71BA7000C30A81B74
:1004A000A8005C0889005D18842ADD18AA2A5D1955
:1004B000D02A5A2A05148510051185112008BC0080
:1004C0002208BE002508C000C501C601C701C80139
:1004D000C901CA015708BE02C80A03186B2A37248B
:1004E0005808BE02C70A0318712A3D245708C002E3
:1004F000CA0A0318772A43245808C002C90A0318F5
:100500007D2A4924D323062A051085140511851157
:100510002708C1002808C200CB01CC01CD01CE01C3
:100520005708C102CC0A0318912A4F245808C10267
:10053000CB0A0318972A55245708C202CE0A03187B
:100540009D2A5B245808C202CD0A0318A32A6124FD
:10055000E023062A0510851005158511D301D40165
:10056000D501D6012408C4002608C3005708C402D8
:10057000D40A0318B72A7F245808C402D30A0318E0
:10058000BD2A85245708C302D60A0318C32A8B2420
:100590005808C302D50A0318C92A9124ED23062A54
:1005A0000510851005118515CF01D001D101D201AB
:1005B0002108BD002308BF005708BD02D00A031858
:1005C000DD2A67245808BD02CF0A0318E32A6D24E8
:1005D0005708BF02D20A0318E92A73245808BF0239
:1005E000D10A0318EF2A7924FA23062A031783165F
:1005F0008801890103138316FF3086008501870176
:10060000880189010313831285018701880186010E
:1006100089010030A0003B30A2000530A500003069
:10062000A9000030AA000030AB000030AC00003060
:10063000AD000030AE000030C5000030C600003014
:10064000C7000030C8000030C9000030CA000A30BE
:10065000D7000130D8000030BB000030D900003096
:10066000DA000030DB00FF30DC000030DD000F304E
:10067000A7000B30A800FE30DE000030DF000030A5
:10068000E0000530A1000130A3000530A4000A30CD
:10069000A6000030E1000800031383160F140F17A3
:1006A0008F160F1208000313831681128111011196
:1006B0008110011003138312063081000B11080012
:1006C000031383129010901190161016101310142B
:1006D0009423080003138316F3309200031383124C
:1006E000921412141217921612169215121508006F
:1006F000031383161614961416159615161603135F
:1007000083160C148C14031383120B178B178B1680
:100710000B110C108C108B150B1008000313831297
:10072000063081000B110800031383120B308F0079
:10073000DC308E000C108E23072408009423D90A85
:10074000DC0908008C100800061CB023861CCF238F
:10075000061DCD24861D0025061EC2240B10080090
:100760005D18C32BDD18C92B5D19B72BBD2B5D1090
:10077000DD105D11061CB72B08005D14DD105D1146
:10078000061CBD2B08005D10DD145D11061CC32B7B
:1007900008005D10DD105D15061CC92B0800DE0980
:1007A000861CD02B08002B080021E3002C08002118
:1007B000E4002D080021E5002E080021E2000800D9
:1007C00031080021E30032080021E4002F08002155
:1007D000E50030080021E200080037080021E300AE
:1007E00038080021E40039080021E5003A0800211A
:1007F000E200080033080021E30034080021E4008F
:1008000035080021E50036080021E20008008801D3
:100810003B18162CBB181D2C3B19242C0F2C6508DB
:10082000870008143B14BB103B11080064088700C4
:1008300088143B10BB143B1108006308870008159F
:100840003B10BB103B1508006208870088153B1061
:10085000BB103B110800C6035708BC074608AA0096
:100860000800C5035808BC074508A9000800C803CC
:100870005708BE074808AC000800C7035808BE0761
:100880004708AB000800CA035708C0074A08AE0073
:100890000800C9035808C0074908AD000800CC0388
:1008A0005708C1074C08B0000800CB035808C1071F
:1008B0004B08AF000800CE035708C2074E08B2002D
:1008C0000800CD035808C2074D08B1000800D00346
:1008D0005708BD075008B4000800CF035808BD07EB
:1008E0004F08B3000800D2035708BF075208B600EC
:1008F0000800D1035808BF075108B5000800D40309
:100900005708C4075408B8000800D3035808C407A0
:100910005308B7000800D6035708C3075608BA00A3
:100920000800D5035808C3075508B9000800D901C5
:10093000A00A5E180800611C0800A1030800A001BD
:10094000A20A0800A201A50A0800A501A70A08003A
:100950000130A80008003B30A40008001730A600B2
:1009600008000030A3000030A10005166110080047
:1009700005120130A30008006330A30008003B30DB
:10098000A10008005E18C92CC52CE109061EC62C62
:100990000800E009061ECA2C08005E1C080060184A
:1009A000E92CD22C5D18DD2CDD18E12C5D19E52C2D
:1009B000D92CA20A061DDA2C0800A70A061DDE2C77
:1009C0000800A40A061DE22C0800A10A061DE62C58
:1009D00008005D18F42CDD18F82C5D19FC2CF02CA7
:1009E000A50A061DF12C0800A80A061DF52C080012
:1009F000A60A061DFB2C0800A30A061DFD2C0800F4
:100A00005E1C080060181C2D052D5D18102DDD18CA
:100A1000142D5D19182D0C2DA203861D0D2D080017
:100A2000A703861D112D0800A403861D152D08009F
:100A3000A103861D192D08005D18272DDD182B2D0B
:100A40005D192F2D232DA503861D242D0800A80335
:100A5000861D282D0800A603861D2C2D0800A30343
:060A6000861D302D080088
:04400E00D420FF3F7C
:00000001FF
