:02000000002AD4
:10000800F000030EF100031383120B197F230C1861
:1000180082238C1886230B188823710E8300F00E18
:04002800700E09004D
:100200008A010A140F398207DD345034CE34DA34CF
:1002100053349B349F34D034DF34D334D7341F3439
:080220008D345E348F34873405
:10040000DC223023372344234E235C23D9187F2456
:1004100020083C3C03198724A11BA3033B30A11BEC
:10042000A100A108031D172AA30803199324051E80
:100430001D2A5E189A2422083C3C03198A242508A8
:10044000183C03198D243B30A21BA2003B30A51B96
:10045000A5002708203C0319A70128080D3C031913
:1004600090241F30A71BA7000C30A81BA8005C0815
:1004700089005D186A2ADD18902A5D19B62A402A7B
:1004800005148510051185112008BC002208BE0046
:100490002508C000C501C601C701C801C901CA01BC
:1004A0005708BE02C80A0318512A1F245808BE0262
:1004B000C70A0318572A25245708C002CA0A031876
:1004C0005D2A2B245808C002C90A0318632A312464
:1004D000BB23062A05108514051185112708C100C4
:1004E0002808C200CB01CC01CD01CE015708C102C2
:1004F000CC0A0318772A37245808C102CB0A0318FC
:100500007D2A3D245708C202CE0A0318832A4324B9
:100510005808C202CD0A0318892A4924C823062A8A
:100520000510851005158511D301D401D501D6011B
:100530002408C4002608C3005708C402D40A0318BC
:100540009D2A67245808C402D30A0318A32A6D24DD
:100550005708C302D60A0318A92A73245808C302ED
:10056000D50A0318AF2A7924D523062A0510851049
:1005700005118515CF01D001D101D2012108BD009F
:100580002308BF005708BD02D00A0318C32A4F240E
:100590005808BD02CF0A0318C92A55245708BF02BC
:1005A000D20A0318CF2A5B245808BF02D10A0318C5
:1005B000D52A6124E223062A0317831688018901BC
:1005C00003138316FF3086008501870188018901A6
:1005D0000313831285018701880186018901003098
:1005E000A0003B30A2000530A5000030A90000307B
:1005F000AA000030AB000030AC000030AD0000308D
:10060000AE000030C5000030C6000030C70000302A
:10061000C8000030C9000030CA000A30D7000130DD
:10062000D8000030BB000030D9000030DA000030C4
:10063000DB00FF30DC000030DD000F30A7000B30A6
:10064000A800FE30DE000030DF000030E0000530A2
:10065000A1000030A3000530A4000A30A600080065
:10066000031383160F140F178F160F1208000313AE
:10067000831681128111011181100110031383125D
:10068000063081000B1108000313831290109011A3
:1006900090161016101310147823080003138316F5
:1006A000F33092000313831292141214121792164D
:1006B00012169215121508000313831616149614B9
:1006C000161596151616031383160C148C140313A3
:1006D00083120B178B178B160B110C108C108B15AC
:1006E0000B10080003138312063081000B11080061
:1006F000031383120B308F00DC308E000C1072233A
:10070000EF2308007823D90ADC0908008C100800C0
:10071000061C9423861CB323061D9E24861DC92413
:10072000061EB7230B1008005D18A72BDD18AD2B94
:100730005D199B2BA12B5D10DD105D11061C9B2B01
:1007400008005D14DD105D11061CA12B08005D1072
:10075000DD145D11061CA72B08005D10DD105D1572
:10076000061CAD2B0800DE09861CB42B0800E0092E
:10077000061EB82B08002B080021E2002C080021DF
:10078000E3002D080021E4002E080021E10008000C
:1007900031080021E20032080021E3002F08002187
:1007A000E40030080021E100080037080021E200E1
:1007B00038080021E30039080021E4003A0800214C
:1007C000E100080033080021E20034080021E300C2
:1007D00035080021E40036080021E1000800880106
:1007E0003B18FE2BBB18052C3B190C2CF72B64086F
:1007F000870008143B14BB103B11080063088700F6
:1008000088143B10BB143B110800620887000815D0
:100810003B10BB103B1508006108870088153B1092
:10082000BB103B110800C6035708BC074608AA00C6
:100830000800C5035808BC074508A9000800C803FC
:100840005708BE074808AC000800C7035808BE0791
:100850004708AB000800CA035708C0074A08AE00A3
:100860000800C9035808C0074908AD000800CC03B8
:100870005708C1074C08B0000800CB035808C1074F
:100880004B08AF000800CE035708C2074E08B2005D
:100890000800CD035808C2074D08B1000800D00376
:1008A0005708BD075008B4000800CF035808BD071B
:1008B0004F08B3000800D2035708BF075208B6001C
:1008C0000800D1035808BF075108B5000800D40339
:1008D0005708C4075408B8000800D3035808C407D1
:1008E0005308B7000800D6035708C3075608BA00D4
:1008F0000800D5035808C3075508B9000800D901F6
:10090000A00A5E180800601C0800A1030800A001EE
:10091000A20A0800A201A50A0800A501A70A08006A
:100920000130A80008000030A3000030A100051627
:100930006010080005120130A30008005E1C0800CA
:100940006018B62CA32C5D18AE2CDD1800005D19C4
:10095000B22CAA2CA20A061DAB2C0800A70A061D61
:10096000AF2C0800A10A061DB32C08005D18C12C8D
:10097000DD1800005D19C52CBD2CA50A061DBE2C76
:100980000800A80A061DC22C0800A30A061DC62CD2
:1009900008005E1C08006018E12CCE2C5D18D92CD4
:1009A000DD1800005D19DD2CD52CA203861DD62C88
:1009B0000800A703861DDA2C0800A103861DDE2C83
:1009C00008005D18EC2CDD1800005D19F02CE82CF7
:1009D000A503861DE92C0800A803861DED2C080040
:0809E000A303861DF12C0800A1
:04400E00D420FF3F7C
:00000001FF
